:020000040800F2
:1000000000C00020E1280008211A0008271A000873
:100010002D1A0008331A0008391A000800000000E1
:100020000000000000000000000000003F1A00086F
:100030004B1A000800000000571A0008631A000855
:100040002929000829290008292900082929000848
:100050002929000829290008292900082929000838
:10006000292900082929000829290008711A0008EF
:1000700029290008851A000829290008991A00086A
:10008000AD1A00082929000829290008C11A00080A
:10009000D51A0008F11B0008051C000829290008D2
:1000A00029290008292900082929000829290008E8
:1000B00029290008191C0008351E000829290008F4
:1000C00029290008292900082929000829290008C8
:1000D00029290008491E00085D1E0008711E00083D
:1000E00029290008292900082929000829290008A8
:1000F0002929000829290008292900082929000898
:100100002929000829290008292900082929000887
:10011000851E000829290008292900082929000826
:100120002929000829290008991E00082929000802
:1001300000000000000000000000000000000000BF
:1001400000000000000000000000000000000000AF
:10015000000000000000000000000000000000009F
:10016000000000000000000000000000000000008F
:10017000000000000000000000000000000000007F
:10018000000000000000000000000000000000006F
:10019000000000000000000000000000000000005F
:1001A000000000000000000000000000000000004F
:1001B000000000000000000000000000000000003F
:1001C000000000000000000000000000000000002F
:1001D000000000000000000000000000000000001F
:0401E0005FF8E0F1F3
:1001E80010B5054C237833B9044B13B10448AFF369
:1001F80000800123237010BD2402002000000000AD
:10020800581B010808B5034B1BB103490348AFF35A
:10021800008008BD0000000028020020581B0108CB
:1002280010F8012B11F8013B012A28BF9A42F7D098
:10023800D01A7047034613F8012B002AFBD1181A6D
:100248000138704781F0004102E000BF83F00043AD
:1002580030B54FEA41044FEA430594EA050F08BF59
:1002680090EA020F1FBF54EA000C55EA020C7FEA1D
:10027800645C7FEA655C00F0E2804FEA5454D4EB9A
:100288005555B8BF6D420CDD2C4480EA020281EA64
:10029800030382EA000083EA010180EA020281EA9C
:1002A8000303362D88BF30BD11F0004F4FEA0131EE
:1002B8004FF4801C4CEA113102D0404261EB4101FD
:1002C80013F0004F4FEA03334CEA133302D0524283
:1002D80063EB430394EA050F00F0A780A4F101043F
:1002E800D5F1200E0DDB02FA0EFC22FA05F2801879
:1002F80041F1000103FA0EF2801843FA05F359415F
:100308000EE0A5F120050EF1200E012A03FA0EFCDD
:1003180028BF4CF0020C43FA05F3C01851EBE37107
:1003280001F0004507D54FF0000EDCF1000C7EEB24
:1003380000006EEB0101B1F5801F1BD3B1F5001F62
:100348000CD349085FEA30004FEA3C0C04F1010481
:100358004FEA445212F5800F80F09A80BCF1004FAA
:1003680008BF5FEA500C50F1000041EB045141EA2C
:10037800050130BD5FEA4C0C404141EB0101013CF5
:1003880028BFB1F5801FE9D291F0000F04BF0146E4
:100398000020B1FA81F308BF2033A3F10B03B3F1B6
:1003A80020020CDA0C3208DD02F1140CC2F10C0246
:1003B80001FA0CF021FA02F10CE002F11402D8BFA4
:1003C800C2F1200C01FA02F120FA0CFCDCBF41EA70
:1003D8000C019040E41AA2BF01EB0451294330BD3F
:1003E8006FEA04041F3C1CDA0C340EDC04F114041C
:1003F800C4F1200220FA04F001FA02F340EA0300F3
:1004080021FA04F345EA030130BDC4F10C04C4F138
:10041800200220FA02F001FA04F340EA0300294618
:1004280030BD21FA04F0294630BD94F0000F83F462
:10043800801306BF81F480110134013D4EE77FEA45
:10044800645C18BF7FEA655C29D094EA050F08BF91
:1004580090EA020F05D054EA000C04BF1946104672
:1004680030BD91EA030F1EBF0021002030BD5FEAB6
:10047800545C05D14000494128BF41F0004130BDDE
:1004880014F580043CBF01F5801130BD01F0004532
:1004980045F0FE4141F470014FF0000030BD7FEAA5
:1004A800645C1ABF194610467FEA655C1CBF0B46A0
:1004B800024650EA013406BF52EA033591EA030FB7
:1004C80041F4002130BD00BF90F0000F04BF0021AF
:1004D800704730B54FF4806404F132044FF00005E2
:1004E8004FF0000150E700BF90F0000F04BF00215B
:1004F800704730B54FF4806404F1320410F00045C1
:1005080048BF40424FF000013EE700BF42004FEABB
:10051800E2014FEA31014FEA02701FBF12F07F4338
:1005280093F07F4F81F06051704732F07F4208BFEF
:10053800704793F07F4F04BF41F40021704730B5F6
:100548004FF4607401F0004521F000411CE700BF42
:1005580050EA010208BF704730B54FF000050AE0C5
:1005680050EA010208BF704730B511F0004502D5C6
:10057800404261EB41014FF4806404F132045FEAC8
:10058800915C3FF4D8AE4FF003025FEADC0C18BF71
:1005980003325FEADC0C18BF033202EBDC02C2F163
:1005A800200300FA03FC20FA02F001FA03FE40EAF5
:1005B8000E0021FA02F11444BDE600BF70B54FF0F9
:1005C800FF0C4CF4E06C1CEA11541DBF1CEA1355D7
:1005D80094EA0C0F95EA0C0F00F0DEF82C4481EA3F
:1005E800030621EA4C5123EA4C5350EA013518BF5F
:1005F80052EA033541F4801143F4801338D0A0FB4C
:1006080002CE4FF00005E1FB02E506F00042E0FBF8
:1006180003E54FF00006E1FB03569CF0000F18BFFE
:100628004EF0010EA4F1FF04B6F5007F64F54074A6
:1006380004D25FEA4E0E6D4146EB060642EAC62139
:1006480041EA55514FEAC52040EA5E504FEACE2EA6
:10065800B4F1FD0C88BFBCF5E06F1ED8BEF1004FA9
:1006680008BF5FEA500E50F1000041EB045170BD25
:1006780006F0004646EA010140EA020081EA030169
:10068800B4EB5C04C2BFD4EB0C0541EA045170BD65
:1006980041F480114FF0000E013C00F3AB8014F1DF
:1006A800360FDEBF002001F0004170BDC4F1000428
:1006B800203C35DA0C341BDC04F11404C4F12005A9
:1006C80000FA05F320FA04F001FA05F240EA020004
:1006D80001F0004221F0004110EBD37021FA04F63A
:1006E80042EB06015EEA430E08BF20EAD37070BDF4
:1006F800C4F10C04C4F1200500FA04F320FA05F053
:1007080001FA04F240EA020001F0004110EBD37054
:1007180041F100015EEA430E08BF20EAD37070BDC4
:10072800C4F1200500FA05F24EEA020E20FA04F39D
:1007380001FA05F243EA020321FA04F001F000414C
:1007480021FA04F220EA020000EBD3705EEA430EBD
:1007580008BF20EAD37070BD94F0000F0FD101F0EC
:100768000046400041EB010111F4801F08BF013C25
:10077800F7D041EA060195F0000F18BF704703F063
:100788000046520043EB030313F4801F08BF013DEA
:10079800F7D043EA0603704794EA0C0F0CEA1355A6
:1007A80018BF95EA0C0F0CD050EA410618BF52EA60
:1007B8004306D1D181EA030101F000414FF0000066
:1007C80070BD50EA410606BF1046194652EA430674
:1007D80019D094EA0C0F02D150EA013613D195EAE8
:1007E8000C0F05D152EA03361CBF104619460AD130
:1007F80081EA030101F0004141F0FE4141F470013A
:100808004FF0000070BD41F0FE4141F4780170BD29
:1008180070B54FF0FF0C4CF4E06C1CEA11541DBF8E
:100828001CEA135594EA0C0F95EA0C0F00F0A7F890
:10083800A4EB050481EA030E52EA03354FEA0131BD
:1008480000F088804FEA03334FF0805545EA1313D0
:1008580043EA12634FEA022245EA111545EA106598
:100868004FEA00260EF000419D4208BF964244F12F
:10087800FD0404F5407402D25B084FEA3202B61A4E
:1008880065EB03055B084FEA32024FF480104FF422
:10089800002CB6EB020E75EB030E22BFB61A754696
:1008A80040EA0C005B084FEA3202B6EB020E75EB29
:1008B800030E22BFB61A754640EA5C005B084FEA91
:1008C8003202B6EB020E75EB030E22BFB61A75465E
:1008D80040EA9C005B084FEA3202B6EB020E75EB69
:1008E800030E22BFB61A754640EADC0055EA060E2A
:1008F80018D04FEA051545EA16754FEA06164FEA6D
:10090800C30343EA52734FEAC2025FEA1C1CC0D118
:1009180011F4801F0BD141EA00014FF000004FF0A5
:10092800004CB6E711F4801F04BF01430020B4F166
:10093800FD0C88BFBCF5E06F3FF6AFAEB5EB030C1E
:1009480004BFB6EB020C5FEA500C50F1000041EB1B
:10095800045170BD0EF0004E4EEA113114EB5C04E8
:10096800C2BFD4EB0C0541EA045170BD41F48011BB
:100978004FF0000E013C90E645EA060E8DE60CEAC3
:10098800135594EA0C0F08BF95EA0C0F3FF43BAFE0
:1009980094EA0C0F0AD150EA01347FF434AF95EA97
:1009A8000C0F7FF425AF104619462CE795EA0C0F7B
:1009B80006D152EA03353FF4FDAE1046194622E748
:1009C80050EA410618BF52EA43067FF4C5AE50EA22
:1009D80041047FF40DAF52EA43057FF4EBAE12E712
:1009E8004FF0FF3C06E000BF4FF0010C02E000BFF3
:1009F8004FF0010C4DF804CD4FEA410C7FEA6C5CD6
:100A08004FEA430C18BF7FEA6C5C1BD001B050EA78
:100A1800410C0CBF52EA430C91EA030F02BF90EA63
:100A2800020F0020704710F1000F91EA030F58BF22
:100A3800994208BF90422CBFD8176FEAE37040F084
:100A4800010070474FEA410C7FEA6C5C02D150EA22
:100A5800013C07D14FEA430C7FEA6C5CD6D152EADD
:100A6800033CD3D05DF8040B704700BF84461046A2
:100A780062468C461946634600E000BF01B5FFF7A1
:100A8800B7FF002848BF10F1000F01BD4DF808ED71
:100A9800FFF7F4FF0CBF012000205DF808FB00BF42
:100AA8004DF808EDFFF7EAFF34BF012000205DF89C
:100AB80008FB00BF4DF808EDFFF7E0FF94BF0120E9
:100AC80000205DF808FB00BF4DF808EDFFF7CEFFEA
:100AD80094BF012000205DF808FB00BF4DF808ED29
:100AE800FFF7C4FF34BF012000205DF808FB00BFFA
:100AF8004FEA410C7FEA6C5C02D150EA013C0AD112
:100B08004FEA430C7FEA6C5C02D152EA033C02D103
:100B18004FF0000070474FF0010070474A0011D2B3
:100B280012F5001211D20DD56FF47873B3EB62523F
:100B38000ED44FEAC12343F0004343EA505323FA4B
:100B480002F070474FF00000704750EA013002D1C0
:100B58004FF0FF3070474FF0000070474FEA4102F6
:100B6800B2F1E04324BFB3F5001CDCF1FE5C0DD903
:100B780001F0004C4FEAC0024CEA5070B2F1004F4D
:100B880040EB830008BF20F00100704711F0804F50
:100B980021D113F13872BCBF01F00040704741F415
:100BA80080114FEA5252C2F11802C2F1200C10FA19
:100BB8000CF320FA02F018BF40F001004FEAC123FD
:100BC8004FEAD32303FA0CFC40EA0C0023FA02F3A1
:100BD8004FEA4303CCE77FEA625307D150EA013377
:100BE8001EBF4FF0FE4040F44000704701F0004047
:100BF80040F0FE4040F40000704700BF80F0004025
:100C080002E000BF81F0004142001FBF5FEA4103DC
:100C180092EA030F7FEA226C7FEA236C6AD04FEADC
:100C28001262D2EB1363C1BFD21841404840414021
:100C3800B8BF5B42192B88BF704710F0004F40F4D3
:100C4800000020F07F4018BF404211F0004F41F4EF
:100C5800000121F07F4118BF494292EA030F3FD0BB
:100C6800A2F1010241FA03FC10EB0C00C3F12003CE
:100C780001FA03F100F0004302D5494260EB40005D
:100C8800B0F5000F13D3B0F1807F06D340084FEAC8
:100C9800310102F10102FE2A51D2B1F1004F40EBBD
:100CA800C25008BF20F0010040EA03007047490025
:100CB80040EB0000013A28BFB0F5000FEDD2B0FAC2
:100CC80080FCACF1080CB2EB0C0200FA0CF0AABFE5
:100CD80000EBC25052421843BCBFD0401843704783
:100CE80092F0000F81F4000106BF80F40000013289
:100CF800013BB5E74FEA41037FEA226C18BF7FEA60
:100D0800236C21D092EA030F04D092F0000F08BFA1
:100D18000846704790EA010F1CBF0020704712F088
:100D28007F4F04D1400028BF40F00040704712F1C7
:100D380000723CBF00F50000704700F0004343F02C
:100D4800FE4040F4000070477FEA226216BF084662
:100D58007FEA23630146420206BF5FEA412390EA25
:100D6800010F40F4800070474FF0000304E000BF1B
:100D780010F0004348BF40425FEA000C08BF7047CC
:100D880043F0964301464FF000001CE050EA010290
:100D980008BF70474FF000030AE000BF50EA0102A5
:100DA80008BF704711F0004302D5404261EB410192
:100DB8005FEA010C02BF84460146002043F0B643B7
:100DC80008BFA3F18053A3F50003BCFA8CF2083ADC
:100DD800A3EBC25310DB01FA02FC634400FA02FCE5
:100DE800C2F12002BCF1004F20FA02F243EB0200EC
:100DF80008BF20F00100704702F1200201FA02FC4E
:100E0800C2F1200250EA4C0021FA02F243EB020040
:100E180008BF20EADC7070474FF0FF0C1CEAD05284
:100E28001EBF1CEAD15392EA0C0F93EA0C0F6FD045
:100E38001A4480EA010C400218BF5FEA41211ED023
:100E48004FF0006343EA501043EA5111A0FB01310F
:100E58000CF00040B1F5000F3EBF490041EAD371E4
:100E68005B0040EA010062F17F02FD2A1DD8B3F160
:100E7800004F40EBC25008BF20F00100704790F0CF
:100E8800000F0CF0004C08BF49024CEA502040EA21
:100E980051207F3AC2BFD2F1FF0340EAC2507047E7
:100EA80040F400004FF00003013A5DDC12F1190F25
:100EB800DCBF00F000407047C2F10002410021FA97
:100EC80002F1C2F1200200FA02FC5FEA310040F1AF
:100ED800000053EA4C0308BF20EADC70704792F028
:100EE800000F00F0004C02BF400010F4000F013A60
:100EF800F9D040EA0C0093F0000F01F0004C02BF5B
:100F0800490011F4000F013BF9D041EA0C018FE7C9
:100F18000CEAD15392EA0C0F18BF93EA0C0F0AD0CF
:100F280030F0004C18BF31F0004CD8D180EA0100F5
:100F380000F00040704790F0000F17BF90F0004F8E
:100F4800084691F0000F91F0004F14D092EA0C0F70
:100F580001D142020FD193EA0C0F03D14B0218BF03
:100F6800084608D180EA010000F0004040F0FE4049
:100F780040F40000704740F0FE4040F440007047E5
:100F88004FF0FF0C1CEAD0521EBF1CEAD15392EA64
:100F98000C0F93EA0C0F69D0A2EB030280EA010C54
:100FA80049024FEA402037D04FF0805343EA1111ED
:100FB80043EA10130CF000408B4238BF5B0042F14B
:100FC8007D024FF4000C8B4224BF5B1A40EA0C00F0
:100FD800B3EB510F24BFA3EB510340EA5C00B3EB22
:100FE800910F24BFA3EB910340EA9C00B3EBD10F10
:100FF80024BFA3EBD10340EADC001B0118BF5FEA62
:101008001C1CE0D1FD2A3FF650AF8B4240EBC2508A
:1010180008BF20F0010070470CF0004C4CEA50204B
:101028007F32C2BFD2F1FF0340EAC250704740F49A
:1010380000004FF00003013A37E792F0000F00F08C
:10104800004C02BF400010F4000F013AF9D040EA0A
:101058000C0093F0000F01F0004C02BF490011F49E
:10106800000F013BF9D041EA0C0195E70CEAD15396
:1010780092EA0C0F08D142027FF47DAF93EA0C0F7D
:101088007FF470AF084676E793EA0C0F04D14B0261
:101098003FF44CAF08466EE730F0004C18BF31F013
:1010A800004CCAD130F000427FF45CAF31F000430D
:1010B8007FF43CAF5FE700BF4FF0FF3C06E000BFA6
:1010C8004FF0010C02E000BF4FF0010C4DF804CDC9
:1010D8004FEA40024FEA41037FEA226C18BF7FEAD9
:1010E800236C11D001B052EA530C18BF90EA010FDB
:1010F80058BFB2EB030088BFC81738BF6FEAE1706A
:1011080018BF40F0010070477FEA226C02D15FEA05
:10111800402C05D17FEA236CE4D15FEA412CE1D071
:101128005DF8040B704700BF844608466146FFE738
:101138000FB5FFF7C9FF002848BF10F1000F0FBD1A
:101148004DF808EDFFF7F4FF0CBF012000205DF813
:1011580008FB00BF4DF808EDFFF7EAFF34BF012098
:1011680000205DF808FB00BF4DF808EDFFF7E0FF31
:1011780094BF012000205DF808FB00BF4DF808ED82
:10118800FFF7D2FF94BF012000205DF808FB00BFE5
:101198004DF808EDFFF7C8FF34BF012000205DF8C7
:1011A80008FB00BF4FEA40024FEA41037FEA226C86
:1011B80002D15FEA402C08D17FEA236C02D15FEAB2
:1011C800412C02D14FF0000070474FF001007047EA
:1011D80042000ED2B2F1FE4F0BD34FF09E03B3EB99
:1011E800126209D44FEA002343F0004323FA02F0C5
:1011F80070474FF00000704712F1610F01D14202B1
:1012080002D14FF0FF3070474FF00000704700BF29
:1012180038B505460C460022002328462146FFF72C
:101228003FFC28B928462146BDE8384000F00AB8F6
:10123800284604F1004100F005F8404261EB410105
:1012480038BD00BFD0B500220B4B06460F46FFF74E
:10125800B5F9FFF763FC0446FFF736F90022074BA0
:10126800FFF7ACF902460B4630463946FEF7EEFF6B
:10127800FFF754FC2146D0BD0000F03D0000F041CE
:1012880080B584B000AF3B1D00221A605A609A6096
:101298002E4B2F4A1A602D4B4FF480729A602B4BBD
:1012A80001221A73294B00221A75284B4FF4602229
:1012B800DA61264B00225A60244B04221A61234823
:1012C80007F056F90346002B01D000F06EFB00230F
:1012D8007B600123BB600523FB603B1D19461B484F
:1012E80007F02AFB0346002B01D000F05EFB012328
:1012F8007B600223BB603B1D1946144807F01CFBAA
:101308000346002B01D000F050FB02237B6003232F
:10131800BB603B1D19460D4807F00EFB0346002B2A
:1013280001D000F042FB03237B600423BB603B1D1C
:101338001946064807F000FB0346002B01D000F0D1
:1013480034FB00BF1037BD4680BD00BF40020020FF
:101358000024014080B588B000AF786007F1100321
:1013680000221A605A609A60DA607B681B68284A13
:10137800934249D1274B9B69264A43F400739361F2
:10138800244B9B6903F40073FB60FB68214B9B694A
:10139800204A43F0040393611E4B9B6903F0040346
:1013A800BB60BB680F233B6103237B6107F110031C
:1013B8001946194809F036FA184B194A1A60174B9A
:1013C80000225A60154B00229A60144B8022DA6082
:1013D800124B4FF480721A61104B4FF480625A61BD
:1013E8000E4B20229A610D4B0022DA610B4808F05F
:1013F8001DFD0346002B01D000F0D7FA7B68074A91
:101408001A62064A7B68536200BF2037BD4680BD1A
:101418000024014000100240000801407002002032
:101428000800024080B500AF174B184A1A60164BE7
:1014380008225A60144B00229A60134B0022DA608B
:10144800114B4FF400321A610F4B4FF480025A616E
:101458000D4B00221A760C4B01225A760A4B0022B9
:101468009A76094B0122DA76074B00221A77064B47
:1014780000225A77044807F058FC0346002B01D095
:1014880000F093FA00BF80BDB40200200064004061
:1014980080B588B000AF786007F1100300221A60A9
:1014A8005A609A60DA607B681B682C4A934251D173
:1014B8002B4BDB692A4A43F00073D361284BDB6965
:1014C80003F00073FB60FB68254B9B69244A43F0DB
:1014D80004039361224B9B6903F00403BB60BB6860
:1014E8004FF400633B6100237B610023BB6107F17C
:1014F800100319461B4809F095F94FF480533B61D6
:1015080002237B610323FB6107F110031946154889
:1015180009F088F90A220A21132008F04AFB13204F
:1015280008F063FB0A220A21142008F042FB142069
:1015380008F05BFB0A220A21152008F03AFB152067
:1015480008F053FB0A220A21162008F032FB162065
:1015580008F04BFB00BF2037BD4680BD006400404B
:10156800001002400008014080B582B000AF3B4641
:1015780000221A605A60144B144A1A60124808F084
:101588005CFB0346002B01D000F00FFA00233B6000
:1015980000237B603B46002219460B4808F0EEFB0F
:1015A8000346002B01D000F000FA3B4610221946F2
:1015B800054808F0E3FB0346002B01D000F0F5F9DD
:1015C80000BF0837BD4680BDDC0200200074004023
:1015D80080B588B000AF786007F1100300221A6068
:1015E8005A609A60DA607B681B68144A934221D17A
:1015F800134BDB69124A43F00053D361104BDB698C
:1016080003F00053FB60FB680D4B9B690C4A43F0E9
:10161800040393610A4B9B6903F00403BB60BB6836
:1016280030233B6103237B6107F11003194605480A
:1016380009F0F8F800BF2037BD4680BD00740040AF
:10164800001002400008014080B582B000AF224B74
:101658005B69214A43F0010353611F4B5B6903F047
:1016680001037B607B681C4B5B691B4A43F00203E8
:101678005361194B5B6903F002033B603B6800222E
:1016880000210B2008F095FA0B2008F0AEFA002292
:1016980000210D2008F08DFA0D2008F0A6FA00228E
:1016A80000210F2008F085FA0F2008F09EFA00228A
:1016B8000021102008F07DFA102008F096FA002288
:1016C80000213A2008F075FA3A2008F08EFA00BF97
:1016D8000837BD4680BD00BF0010024080B500AF8E
:1016E800124B134A1A60114B124A5A600F4B0022D0
:1016F8009A600E4B0022DA600C4B4FF480421A615C
:101708000A4B00225A61094B00229A61074B0022BA
:10171800DA61064B00221A62044809F02BFB0346E3
:10172800002B01D000F041F900BF80BDF00200207D
:1017380000540040A086010080B588B000AF7860F2
:1017480007F1100300221A605A609A60DA607B6819
:101758001B68154A934223D1144B9B69134A43F0E3
:1017680008039361114B9B6903F00803FB60FB6856
:10177800C0233B6112237B610223FB6107F1100345
:1017880019460B4809F04EF8084BDB69074A43F441
:101798000013D361054BDB6903F40013BB60BB681E
:1017A80000BF2037BD4680BD0054004000100240F5
:1017B800000C014080B500AF06F054FE00F098F828
:1017C80003F0A0FBFFF740FFFFF72CFEFFF7CCFE6E
:1017D800FFF784FF00F07AFC00F080FD00F0A8FD20
:1017E80000F0D0FD00F0F8FD00F022FCFFF748FD06
:1017F80005F0DAFE01F0C4FC01F0B2FA4FF4E13171
:10180800012001F0C7FA4FF4E131012001F054FD45
:1018180001F076F9002220212A4809F07AFA05F029
:1018280095FC0021284808F02AFA1021264808F0DB
:1018380026FA002308220021234808F076FA00231C
:1018480008221021204808F070FA20480BF002F80E
:101858001F480AF0FFFF0C211D480BF0B3F80821C0
:101868001B480BF0AFF806F0FFFC06F0CBFD05F0C7
:10187800A1FB4FF4967006F057FE06F0FDFB154BE2
:101888004FF4FA621A80144B00221A60134B00229C
:101898001A60134B4FF4FA621A80124B4FF4FA6233
:1018A8001A80114B32221A70104802F0CFF904F056
:1018B80003FD05F0B1FB05F051FE03F0E7FA01F076
:1018C800B3FDF4E7000C0140DC02002064030020B3
:1018D800AC0300203C0D0020040D00204C0D00201E
:1018E800560D00203A0D0020580D0020701B0108ED
:1018F80080B596B000AF07F13003282200211846C2
:101908000CF09EFF07F11C0300221A605A609A60CF
:10191800DA601A613B1D00221A605A609A60DA6028
:101928001A615A6101233B634FF480337B630023C0
:10193800BB6301233B640223FB644FF480333B65A4
:101948004FF4E0137B6507F1300318460AF06CFA90
:101958000346002B01D000F028F80F23FB61022377
:101968003B6200237B624FF48063BB620023FB620F
:1019780007F11C03022118460AF0D8FC0346002B85
:1019880001D000F012F802237B604FF40043FB60A3
:101998003B1D18460AF058FE0346002B01D000F004
:1019A80004F800BF5837BD4680BD80B400AF72B69A
:1019B80000BFFEE780B485B000AF154B9B69144AA1
:1019C80043F001039361124B9B6903F00103BB6071
:1019D800BB680F4BDB690E4A43F08053D3610C4B55
:1019E800DB6903F080537B607B680A4B5B68FB60B4
:1019F800FB6823F0E063FB60FB6843F00073FB6067
:101A0800044AFB68536000BF1437BD4680BC70476A
:101A1800001002400000014080B400AFFEE780B42F
:101A280000AFFEE780B400AFFEE780B400AFFEE78A
:101A380080B400AFFEE780B400AF00BFBD4680BCF5
:101A4800704780B400AF00BFBD4680BC704780B40B
:101A580000AF00BFBD4680BC704780B500AF06F040
:101A680047FD00BF80BD000080B500AF024808F008
:101A78006FFC00BF80BD00BF7002002080B500AFC2
:101A8800024808F065FC00BF80BD00BFE0050020EB
:101A980080B500AF024808F05BFC00BF80BD00BF06
:101AA8005805002080B500AF024808F051FC00BF7F
:101AB80080BD00BF9C05002080B500AF024807F03C
:101AC80051FD00BF80BD00BFB402002080B586B0C4
:101AD80000AF3C4807F046FD3B1D0B333A4A002156
:101AE800384807F0F9FB384B1B6840F22312934241
:101AF80026D1354B9B68002B22D1334B1B69022B17
:101B08001ED1FA7B314B1A703A7C304B5A702E4BEF
:101B18001B682F4A13602C4B9B68DAB22D4B1A7046
:101B2800294B1B69DAB22C4B1A702C4B4FF4FA6212
:101B38001A802B4B1B8843F002039AB2284B1A8059
:101B4800214B1B68B3F5A06F37D11F4B9B68002B47
:101B580033D11D4B1B69082B2FD1FA7B214B1A70EF
:101B68003A7C204B5A707A7C1E4B9A70BA7C1D4B7B
:101B7800DA70FA7C1B4B1A713A7D1A4B5A717A7DCE
:101B8800184B9A71BA7D174BDA71032005F0A6FB42
:101B98000D4B1B680E4A13600B4B9B68DAB20D4B5A
:101BA8001A70094B1B69DAB20B4B1A700C4B1B8865
:101BB80043F004039AB20A4B1A8000BF1837BD4697
:101BC80080BD00BFB402002044030020640D002043
:101BD800500D0020540D0020550D0020560D0020FA
:101BE800000D0020680D002080B500AF024807F006
:101BF800B9FC00BF80BD00BFB402002080B500AFB3
:101C0800024807F0AFFC00BF80BD00BFB40200204F
:101C180080B500AF714B1B680133704A13606F4B7E
:101C28001B686F4A1268B3FBF2F101FB02F29B1AC0
:101C3800002B06D16B4B1B8843F002039AB2694B09
:101C48001A80664B1968684BA3FB01231A091346CF
:101C58001B019B1A5B00CA1A002A06D1614B1B881C
:101C680043F004039AB25F4B1A805C4B1A685F4BCF
:101C7800A3FB02135B09642101FB03F3D31A002BB6
:101C880006D1584B1B8843F010039AB2554B1A8063
:101C9800524B1A68554BA3FB02139B09C82101FB41
:101CA80003F3D31A002B06D14E4B1B8843F02003B5
:101CB8009AB24C4B1A80494B1A684D4BA3FB02133E
:101CC8005B094FF4FA7101FB03F3D31A002B06D119
:101CD800444B1B8843F040039AB2424B1A80454B51
:101CE800DB88002B05D0434BDB88013B9AB2414B84
:101CF800DA80414BDB88002B05D03F4BDB88013B6A
:101D08009AB23D4BDA803D4B1B88002B05D03B4BEC
:101D18001B88013B9AB2394B1A80394B1B88002B20
:101D280005D0374B1B88013B9AB2354B1A80354B8F
:101D38001B88002B05D0334B1B88013B9AB2314BD3
:101D48001A80314B1B88002B05D02F4B1B88013B79
:101D58009AB22D4B1A802D4B1B88002B05D02B4B8C
:101D68001B88013B9AB2294B1A80294B1B88002BF0
:101D780005D0274B1B88013B9AB2254B1A80254B6F
:101D88001B88002B05D0234B1B88013B9AB2214BA3
:101D98001A80214B1B88002B05D01F4B1B88013B49
:101DA8009AB21D4B1A801D4B1B68002B04D01B4B8D
:101DB8001B68013B194A1360194B1B78002B08D08C
:101DC800184B1B68002B04D0164B1B68013B154AA7
:101DD800136015480AF0B0FE00BF80BD600D0020FA
:101DE8002C000020F40C0020898888881F85EB517E
:101DF800D34D6210DC0C0020E80C0020200D0020E0
:101E0800220D0020240D0020260D0020560D002054
:101E18003A0D00203C0D00205A0D0020E80D00204E
:101E2800D80C0020D40C00206403002080B500AF3B
:101E380002480AF081FE00BF80BD00BFAC0300204D
:101E480080B500AF02480BF0BDFD00BF80BD00BFEC
:101E58003C04002080B500AF02480BF0B3FD00BF82
:101E680080BD00BF8404002080B500AF02480BF09D
:101E7800A9FD00BF80BD00BFCC04002080B500AF25
:101E880002480BF09FFD00BF80BD00BFF403002097
:101E980080B500AF024808F05BFA00BF80BD00BF04
:101EA8001405002080B400AF01231846BD4680BC4D
:101EB800704780B582B000AF786039600CF088FC5C
:101EC800034616221A604FF0FF3318460837BD46FE
:101ED80080BD80B582B000AF78604FF0FF31786880
:101EE800FFF7E7FFFEE780B586B000AFF860B9609E
:101EF8007A6000237B610AE0AFF300800146BB688B
:101F08005A1CBA60CAB21A707B6901337B617A695C
:101F18007B689A42F0DB7B6818461837BD4680BD5F
:101F280080B586B000AFF860B9607A6000237B6145
:101F380009E0BB685A1CBA601B781846AFF30080EA
:101F48007B6901337B617A697B689A42F1DB7B6844
:101F580018461837BD4680BD80B483B000AF78609E
:101F68004FF0FF3318460C37BD4680BC704780B42D
:101F780083B000AF786039603B684FF400525A6014
:101F8800002318460C37BD4680BC704780B483B028
:101F980000AF7860012318460C37BD4680BC7047F7
:101FA80080B485B000AFF860B9607A600023184645
:101FB8001437BD4680BC704780B586B000AF7860E6
:101FC800144A154BD31A7B617B693B61134B1B6821
:101FD800002B02D1114B124A1A60104B1A687B6809
:101FE80013443A699A4207D20CF0F2FB03460C22DA
:101FF8001A604FF0FF3309E0084B1B68FB60074B82
:102008001A687B681344054A1360FB68184618373A
:10201800BD4680BD00C00020000400006003002011
:10202800080E002080B400AF00BFBD4680BC7047DA
:1020380080B586B000AF07F1080300221A605A6025
:102048009A60DA603B4600221A605A601D4B1E4AAD
:102058001A601C4B40F2CF225A601A4B00229A6039
:10206800184B6322DA60174B00221A61154B0022C5
:102078009A6114480AF09EFB0346002B01D0FFF733
:1020880094FC4FF48053BB6007F1080319460D48D0
:102098000AF01CFF0346002B01D0FFF786FC002343
:1020A8003B6000237B603B46194606480BF0E2FA8A
:1020B8000346002B01D0FFF778FC00BF1837BD4658
:1020C80080BD00BF640300200004004080B58EB0CE
:1020D80000AF07F1280300221A605A609A60DA609C
:1020E80007F1200300221A605A603B1D00221A6083
:1020F8005A609A60DA601A615A619A61324B334ABF
:102108001A60314B47225A602F4B00229A602E4B9F
:1021180040F2E732DA602C4B00221A612A4B002287
:102128009A6129480AF046FB0346002B01D0FFF7C5
:102138003CFC4FF48053BB6207F128031946224840
:102148000AF0C4FE0346002B01D0FFF72EFC1E4800
:102158000AF0E0FB0346002B01D0FFF726FC002322
:102168003B6200237B6207F12003194616480BF0F7
:1021780081FA0346002B01D0FFF717FC60237B6030
:102188000023BB600023FB6000237B613B1D08220A
:1021980019460D480AF0D8FD0346002B01D0FFF779
:1021A80004FC3B1D0C22194607480AF0CDFD0346E6
:1021B800002B01D0FFF7F9FB034800F04BF800BFF4
:1021C8003837BD4680BD00BFAC0300200008004082
:1021D80080B584B000AF78607B681B681A4A934268
:1021E80014D11A4BDB69194A43F00203D361174B28
:1021F800DB6903F00203FB60FB68002200211D205D
:1022080007F0D7FC1D2007F0F0FC18E07B681B687E
:102218000F4A934213D10D4BDB690C4A43F0040378
:10222800D3610A4BDB6903F00403BB60BB6800227F
:1022380000211E2007F0BDFC1E2007F0D6FC00BFC1
:102248001037BD4680BD00BF0004004000100240AA
:102258000008004080B588B000AF786007F10C0333
:1022680000221A605A609A60DA607B681B68174A15
:10227800934226D1164B9B69154A43F0200393617C
:10228800134B9B6903F02003BB60BB684FF44043CA
:10229800FB6002233B610223BB6107F10C03194673
:1022A8000C4808F0BFFA0C4B5B68FB61FB6943F014
:1022B800E063FB61FB6943F48053FB61064AFB69F9
:1022C800536000BF2037BD4680BD00BF00080040F6
:1022D80000100240001401400000014080B500AF2A
:1022E800114B124A1A60104B4FF4E1325A600E4BF0
:1022F80000229A600C4B0022DA600B4B00221A6114
:10230800094B0C225A61084B00229A61064B0022A5
:10231800DA6105480BF02CFA0346002B01D0FFF7D1
:1023280044FB00BF80BD00BFF4030020004C004008
:1023380080B500AF114B124A1A60104B4FF4E132CE
:102348005A600E4B00229A600C4B0022DA600B4B4D
:1023580000221A61094B0C225A61084B00229A612B
:10236800064B0022DA6105480BF002FA0346002BFF
:1023780001D0FFF71AFB00BF80BD00BF3C0400205E
:102388000038014080B500AF114B124A1A60104B5B
:102398004FF4E1325A600E4B00229A600C4B002237
:1023A800DA600B4B00221A61094B0C225A61084B68
:1023B80000229A61064B0022DA6105480BF0D8F931
:1023C8000346002B01D0FFF7F0FA00BF80BD00BF25
:1023D800840400200044004080B500AF114B124A2D
:1023E8001A60104B4FF4E1325A600E4B00229A608B
:1023F8000C4B0022DA600B4B00221A61094B0C22AD
:102408005A61084B00229A61064B0022DA6105489E
:102418000BF0AEF90346002B01D0FFF7C6FA00BF58
:1024280080BD00BFCC0400200048004080B590B0BB
:1024380000AF786007F12C0300221A605A609A6096
:10244800DA607B681B689E4A934260D19D4BDB69CA
:102458009C4A43F40023D3619A4BDB6903F40023BD
:10246800BB62BB6A974B9B69964A43F01003936122
:10247800944B9B6903F010037B627B6A4FF4806383
:10248800FB6202233B630323BB6307F12C0319465A
:102498008D4808F0C7F94FF40063FB6200233B63E3
:1024A80000237B6307F12C031946874808F0BAF923
:1024B800864B874A1A60854B00225A60834B00225C
:1024C8009A60824B8022DA60804B00221A617F4B2F
:1024D80000225A617D4B20229A617C4B0022DA61EE
:1024E8007A4807F0A3FC0346002B01D0FFF75DFAFA
:1024F8007B68764ADA63754A7B685362002200215A
:10250800342007F056FB342007F06FFB59E17B6855
:102518001B68704A934260D16A4B9B69694A43F4CD
:1025280080439361674B9B6903F480433B623B6A3A
:10253800644B9B69634A43F004039361614B9B6955
:1025480003F00403FB61FB694FF40073FB62022391
:102558003B630323BB6307F12C0319465E4808F06D
:1025680061F94FF48063FB6200233B6300237B63C4
:1025780007F12C031946584808F054F9574B584AA4
:102588001A60564B00225A60544B00229A60534BF3
:102598008022DA60514B00221A61504B00225A61A6
:1025A8004E4B20229A614D4B0022DA614B4807F0CE
:1025B8003DFC0346002B01D0FFF7F7F97B68474A3B
:1025C800DA63464A7B68536200220021252007F01F
:1025D800F0FA252007F009FBF3E07B681B68414A05
:1025E800934240F08980374BDB69364A43F4003325
:1025F800D361344BDB6903F40033BB61BB69314BF6
:102608009B69304A43F0200393612E4B9B6903F08A
:1026180020037B617B692023FB6202233B63032346
:10262800BB6307F12C0319462F4808F0FBF8402339
:10263800FB6200233B6300237B6307F12C031946ED
:10264800294808F0EFF8294B5B68FB63FB6B43F004
:10265800E063FB63FB6B43F00803FB63234AFB6BFC
:102668005360234B234A1A60214B00225A60204BA7
:1026780000229A601E4B8022DA601D4B00221A61EC
:102688001B4B00225A611A4B20229A61184B0022D8
:10269800DA61174807F0CAFB0346002B01D0FFF7A1
:1026A80084F97B68124ADA63114A7B685362002214
:1026B8000021262007F07DFA262007F096FA80E010
:1026C800004C00400010024000100140140500209A
:1026D800300402400038014000080140580500203D
:1026E800580002400044004000140140000001402E
:1026F8009C0500206C0002407B681B68334A9342AB
:102708005FD1334BDB69324A43F48023D361304BCA
:10271800DB6903F480233B613B692D4B9B692C4AA1
:1027280043F0080393612A4B9B6903F00803FB609D
:10273800FB684FF48063FB6202233B630323BB63A4
:1027480007F12C031946234808F06CF84FF400638E
:10275800FB6200233B6300237B6307F12C031946CC
:102768001C4808F05FF81C4B1C4A1A601A4B0022E0
:102778005A60194B00229A60174B8022DA60164B78
:1027880000221A61144B00225A61134B20229A61CD
:10279800114B0022DA61104807F048FB0346002B72
:1027A80001D0FFF702F97B680B4ADA630A4A7B68B3
:1027B800536200220021272007F0FBF9272007F0A9
:1027C80014FA00BF4037BD4680BD00BF0048004036
:1027D80000100240000C0140E005002030000240DB
:1027E80080B582B000AF78607B681B68314A93423D
:1027F80013D1314BDB69304A23F40023D3614FF402
:1028080040612E4808F0A2F97B68DB6B184607F098
:1028180083FB342007F0F7F948E07B681B68284AF7
:10282800934213D1244B9B69234A23F48043936139
:102838004FF4C061234808F089F97B68DB6B1846C0
:1028480007F06AFB252007F0DEF92FE07B681B689C
:102858001D4A934212D1184BDB69174A23F40033FF
:10286800D3616021194808F071F97B68DB6B184661
:1028780007F052FB262007F0C6F917E07B681B68B3
:10288800134A934212D10C4BDB690B4A23F4802381
:10289800D3614FF440610F4808F058F97B68DB6B4F
:1028A800184607F039FB272007F0ADF900BF0837B5
:1028B800BD4680BD004C00400010024000100140A1
:1028C8000038014000080140004400400014014065
:1028D80000480040000C0140FFF7A4FB0B480C49DE
:1028E8000C4A002302E0D458C4500433C4188C4264
:1028F800F9D3094A094C002301E013600432A242CB
:10290800FBD30BF06BFFFEF755FF7047000000206C
:10291800240200206432010824020020040E002052
:10292800FEE790B589B004AFF8607B600B467B8109
:1029380013463B813A893B8C1344102B4FDD00BF73
:10294800F8683B89C3F110039BB23A8979894FF43F
:102958007A74029401937B680093012308F04EFB7C
:102968000346002BECD17B681A783B89DBB2D31A7B
:10297800DBB21033DAB27B681A7000BFF8683A89A4
:102988003B8C13449BB2103B9BB279894FF47A720B
:10299800029201937B6800930123102208F02EFB1A
:1029A8000346002BEAD12EE000BF3A89798907F166
:1029B8000C004FF47A730293102301937B68009301
:1029C800012308F01BFB0346002BEED13B8C103B88
:1029D8003B847B6810337B603B8910333B813B8CA5
:1029E800102BE1D800BFF8683A8979894FF47A73D7
:1029F80002933B8C01937B680093012308F0FEFA55
:102A08000346002BEFD1012318461437BD4690BD6D
:102A180080B58AB004AFF8607B600B467B811346B3
:102A28003B8121E000237B6102E07B6901337B610C
:102A38003A8979894FF47A730293102301937B685A
:102A480000930123F86808F0D3FB0346002B02D05B
:102A58007B69092BE9DD3B8C103B3B847B68103399
:102A68007B603B8910333B813B8C102BDAD80023E9
:102A78007B6102E07B6901337B613A8979894FF494
:102A88007A7302933B8C01937B6800930123F86867
:102A980008F0AEFB0346002B02D07B69092BE9DD69
:102AA800012318461837BD4680BD000080B485B0A4
:102AB80000AF78600023FB607B68032B14DC0023E5
:102AC800BB600DE0BB689A007B6813440B4A32F880
:102AD80013301A46FB681344FB60BB680133BB60C4
:102AE800BB68072BEEDD01E0012302E0FB68DB0891
:102AF8009BB218461437BD4680BC70472406002098
:102B080080B500AF20220349034805F01BFE00BF33
:102B180080BD00BF240600204002002080B500AF21
:102B280000F0A2F800BF80BD90B585B000AFF86096
:102B3800B9607A603B60B968F868FEF763F80346E5
:102B48001C463968386AFEF75DF803461946204680
:102B5800FEF762F903461C46B9687868FEF752F832
:102B6800034619462046FEF70BFA0346396818460D
:102B7800FEF74AF8034618461437BD4690BD90B58F
:102B880089B002AFF860B9607A607B80BB681B6867
:102B98001946F868FEF7E8FA0346002B02D07B686E
:102BA8001B685CE07B8803F18043013B9B00BA68AB
:102BB80013441B681946F868FEF7E0FA0346002B31
:102BC80008D07B8803F18043013B9B007A6813445B
:102BD8001B6844E00123FB7502E0FB7D0133FB75B4
:102BE800FB7D9B00BA6813441B681946F868FEF71A
:102BF800CFFA0346002BF0D1FB7D9B00BA68134443
:102C08001B681946F868FEF79BFA0346002B05D0A7
:102C1800FB7D9B007A6813441B6820E0FB7D03F171
:102C28008043013B9B00BA6813441968FB7D9B00F5
:102C3800BA6813441868FB7D03F18043013B9B008D
:102C48007A6813441C68FB7D9B007A6813441B68F0
:102C5800009323460246F868FFF766FF03461846C6
:102C68001C37BD4690BD000080B500AF0020FFF7BF
:102C78001DFF03461846FDF737FC4FF00002304BA6
:102C8800FDF79CFC02460B46104619462AA3D3E9D9
:102C98000023FDF7BDFD02460B46104619464FF0CE
:102CA8000002284BFDF7D2FA02460B461046194699
:102CB800FDF754FF0346244A13600120FFF7F6FE90
:102CC80003461846FEF750F80523204A2049FFF727
:102CD80056FF03461F4A13601E4B1B681846FEF733
:102CE80077FA0346DAB21C4B1A701B4B1B78782B09
:102CF80003D81A4B01221A701AE0174B1B788C2B39
:102D080003D8164B02221A7012E0134B1B78A02B23
:102D180003D8124B03221A700AE00F4B1B78B42B0E
:102D280003D80E4B04221A7002E00C4B05221A70CD
:102D380000BF80BDAFF300800000000000FEAF4080
:102D480000404E400000F03F340000200400002006
:102D580018000020640600206806002038000020C3
:102D680080B483B000AF00237B6007E0084A7B682B
:102D7800134400221A707B6801337B607B68012B47
:102D8800F4DD012318460C37BD4680BC704700BFF0
:102D98006C06002080B586B000AF03463960FB7131
:102DA8000023FB75FB79002B02D0012B6ED0DBE0F2
:102DB800704B714A1A606F4A3B6853606D4B002232
:102DC8009A606C4B0022DA606A4B00221A61694BE8
:102DD8000C225A61674B00229A61664B0022DA6125
:102DE80064480AF015FDFB791B01644A13444FF44B
:102DF80080726349184604F03BF9624B5B69614A8B
:102E080043F0010353615F4B5B6903F001033B61CE
:102E18003B6900220021102006F0CBFE102006F0AE
:102E2800E4FE54480AF0A4FC0346002B02D0002319
:102E3800FB7599E00123FB75FB79534A0121D154B5
:102E48004FF480724E494B480AF097FD0346002B19
:102E580001D00023FB75FB79484A1B011344083352
:102E680019684A4B1B685A68FB798A1A43491B013F
:102E78000B441A60FA79FB79404912010A44126836
:102E88003E491B010B4404331A606DE0404B414A34
:102E98001A603F4A3B6853603D4B00229A603C4BA6
:102EA8000022DA603A4B00221A61394B0C225A612F
:102EB800374B00229A61364B0022DA6134480AF017
:102EC800A7FCFB791B012D4A13444FF48072324949
:102ED800184604F0CDF82B4B5B692A4A43F00103EE
:102EE8005361284B5B6903F00103FB60FB68002218
:102EF80000210F2006F05DFE0F2006F076FE244824
:102F08000AF036FC0346002B02D00023FB752AE0AA
:102F18000123FB75FB791C4A0121D1544FF48072BF
:102F28001D491B480AF029FD0346002B01D0002348
:102F3800FB75FB79114A1B01134408331968174BB9
:102F48001B685A68FB798A1A0C491B010B441A60E2
:102F5800FA79FB79094912010A44126807491B01E9
:102F68000B4404331A6000BFFB7D18461837BD4672
:102F780080BD00BF8404002000440040700600208B
:102F880090060020001002406C0600209C050020DE
:102F98003C0400200038014090070020580500201C
:102FA80080B584B000AF0346FB710023FB60FB795A
:102FB800002B02D0012B18D02FE0FB79194A1B01F6
:102FC800134408331968184B1B685A68FB798A1A26
:102FD80014491B010B441A60FB791B01114A134465
:102FE800184604F09BF8F86017E0FB790D4A1B01BE
:102FF8001344083319680D4B1B685A68FB798A1A01
:1030080008491B010B441A60FB791B01054A13444C
:10301800184604F083F8F86000BFFB6818461037BC
:10302800BD4680BD700600209C0500205805002084
:1030380080B584B000AF0346FB710023FB73FB79B6
:10304800002B02D0012B08D00FE007F10F0301225B
:103058001946084804F026F807E007F10F03012293
:103068001946054804F01EF800BFFB7B18461037C8
:10307800BD4680BD700600208006002080B586B061
:1030880000AF0346B9607A60FB7300237B61FB7B6A
:10309800002B02D0012B0FD020E07B689AB264236A
:1030A800B96811480AF0E6FB0346FB74FB7C002B69
:1030B80011D17B687B610EE07B689AB26423B968A2
:1030C80009480AF0D7FB0346FB74FB7C002B04D1AC
:1030D8007B687B6101E000BF00E000BF7B691846A8
:1030E8001837BD4680BD00BF3C0400200EB480B533
:1030F800C7B000AF024607F58C73A3F211131A701C
:1031080007F5947207F58C73A3F586731A6007F5B3
:103118008C73A3F5867307F110001B68D7F8242178
:103128004FF480710CF0E6FAC7F81401D7F81421AF
:1031380007F1100107F58C73A3F211131B781846D9
:10314800FFF79CFFC7F81001D7F81031184607F5AC
:103158008E77BD46BDE8804003B0704780B483B029
:1031680000AF786000BF0C37BD4680BC704780B4A4
:1031780083B000AF786000BF0C37BD4680BC704795
:1031880080B500AF2F4B00221A722E4B00225A72C4
:103198002C4B00221A742B4B002283F89521294BC3
:1031A800002283F89621274B002283F89721254B8C
:1031B800002283F89421234B234AC3F83424214B5B
:1031C800224AC3F838241F4B214AC3F83C241D4B1C
:1031D800204AC3F840241B4800F0AEFB1E491F4894
:1031E80000F028FE1E491F4800F024FE1E491F4813
:1031F80000F020FE1E491F4800F01CFE1E491F4813
:1032080000F018FE1E491F4800F014FE1E491F4812
:1032180000F010FE1E491F4800F00CFE1E491F4812
:1032280000F008FE1E491F4800F004FE1E491F4812
:1032380000F000FE1E491F4800F0FCFD012318465F
:1032480080BD00BF90080020053D0008553D0008DE
:10325800A53D0008E93D0008D13E0008801B010893
:103268006D3F0008881B01088D4000088C1B010871
:10327800AD410008941B0108B54200089C1B0108D9
:10328800BD430008A01B0108C5440008A81B01088D
:10329800D9450008B01B0108ED460008B41B010819
:1032A80001480008BC1B010815490008C01B01089B
:1032B800554A0008C81B010880B582B000AF034614
:1032C8003960FB710A4AFB791370094A3B685360FD
:1032D800FB7939681846FFF75DFD03461A46044B2B
:1032E8001A72034B1B7A18460837BD4680BD00BFCB
:1032F8009008002080B584B000AF7860344B5B7ACA
:10330800002B61D07B68987A7B6893F8E5321A467F
:103318003049FFF7EBFE7B68987A7B6893F8E632D2
:103328001A462D49FFF7E2FE7B68987A7B6893F886
:10333800E4321A462949FFF7D9FE7B68987A7B68F8
:1033480003F529731A462649FFF7D0FE7B68987A59
:103358007B6893F995311A462249FFF7C7FE7B68C7
:10336800987A7B6893F896311A461F49FFF7BEFE94
:103378007B68987A7B6893F897311A461B49FFF760
:10338800B5FE0023FB6012E07B68987AFA68134662
:103398005B0113445B00134403F5CC737A68134450
:1033A800FA681349FFF7A2FEFB680133FB607B68EC
:1033B80093F897311A46FB689342E5DB7B689B7A62
:1033C8000C491846FFF792FE00BF1037BD4680BD76
:1033D80090080020D01B0108E01B0108F01B010821
:1033E800001C0108101C0108201C0108301C0108E1
:1033F800401C0108501C010880B582B000AF7860FD
:103408007B681B7806491846FFF770FE7B681B78B7
:1034180004491846FFF76AFE00BF0837BD4680BD5D
:10342800541C0108581C010880B500AF0E4B1B7ACC
:1034380083F00103DBB2002B01D0002312E00A4B1A
:103448001B781846FFF7ACFD0346002B09D0064B46
:103458001B781846FFF7ECFD03461946024800F0B2
:1034680005F80123184680BD9008002080B58CB06F
:1034780000AF78600B46FB70002387F823307B6829
:1034880003F52973FB617B681B7C002B40F0688186
:10349800FB787F2B2AD07F2B00F3DA801B2B21D0DF
:1034A8001B2B00F3D580082B62D00D2B40F0D08069
:1034B800FB6993F84230002B05D0786800F055FA84
:1034C800786800F021FBFB69002283F84220FB6941
:1034D800002283F84120FB6900221A707868FFF700
:1034E8008BFF44E17B6801221A7440E1FB6993F881
:1034F8004120FB6993F842309A4280F03381FB699E
:1035080093F84220FB6993F84130D31AFB760123E4
:10351800FB6213E0FB6993F841301A46FB6A1A44D0
:10352800FB6993F841301946FB6A0B44013BF96982
:10353800895CFA69D154FB6A0133FB62FB7EFA6A43
:103548009A42E7DBFB6993F84230013BDAB2FB6948
:1035580083F84220FB6993F842301A46FB69002140
:1035680099547B681B788E491846FFF7BFFDF9E030
:10357800FB6993F84230002B55D0FB6993F8413032
:10358800002B50D0FB6993F84120FB6993F8423037
:103598009A420ED1FB6993F84230013BDAB2FB69DB
:1035A80083F84220FB6993F842301A46FB690021F0
:1035B8009954FB6993F84120FB6993F842309A4289
:1035C80031D2FB6993F84220FB6993F84130D31A52
:1035D800BB760023BB6213E0FB6993F841301A46BF
:1035E800BB6A1A44FB6993F841301946BB6A0B441D
:1035F800013BF969895CFA69D154BB6A0133BB6242
:10360800BB7EBA6A9A42E7DBFB6993F84230013B1A
:10361800DAB2FB6983F84220FB6993F842301A4614
:10362800FB6900219954FB6993F84130002B00F0A5
:103638009B80FB6993F84130013BDAB2FB6983F860
:1036480041207B681B7857491846FFF74FFD8BE0F0
:10365800FB6993F842300133FA6992F840209342AB
:1036680080F28480FB6993F84120FB6993F842302B
:103678009A4224D17B681B78F91C01221846FFF76F
:10368800FDFCFB6993F841301A46F978FB699954B7
:10369800FB6993F842300133DAB2FB6983F84220C0
:1036A800FB6993F841300133DAB2FB6983F84120B2
:1036B800FB6993F842301A46FB6900219954FB696B
:1036C80093F84120FB6993F842309A424ED2FB6945
:1036D80093F84220FB6993F84130D31A7B76002394
:1036E8007B6213E0FB6993F842301A467B6AD31A6F
:1036F8005A1EFB6993F8423019467B6ACB1AF9695E
:10370800895CFA69D1547B6A01337B627B7E7A6A71
:103718009A42E7DBFB6993F841301A46F978FB696E
:103728009954FB6993F842300133DAB2FB6983F8A4
:103738004220FB6993F841300133DAB2FB6983F820
:103748004120FB6993F842301A46FB6900219954DD
:103758007B681B78FA7814491846FFF7C7FC05E020
:1037680000BF04E000BF02E000BF00E000BF7B68CC
:103778001B7C013B032B00F2D28001A252F823F0FC
:1037880099370008A1370008B53700081D39000827
:103798007B6802221A74C2E07B6803221A74BEE0B6
:1037A800601C0108681C0108701C01087B68002265
:1037B8001A74FB78442B1AD1FB6993F84130002B1B
:1037C80015D0FB6993F84130013BDAB2FB6983F805
:1037D80041201B233B735B237B73FB78BB737B68A4
:1037E8001B7807F10C0103221846FFF747FCFB780A
:1037F800432B1DD1FB6993F84120FB6993F84230B4
:103808009A4215D2FB6993F841300133DAB2FB6969
:1038180083F841201B233B735B237B73FB78BB73CB
:103828007B681B7807F10C0103221846FFF726FC7A
:10383800FB78412B0CD10121786800F0DBF87B681C
:103848001A787B6803F5297319461046FFF74EFC72
:10385800FB78422B0CD10021786800F0CBF87B680C
:103868001A787B6803F5297319461046FFF73EFC62
:10387800FB78312B0FD17B681878FB6993F84130BE
:103888001A462B49FFF732FCFB69002283F84120D6
:103898007B6804221A74FB78342B3FD1FB6993F8B8
:1038A8004120FB6993F842309A4210D2FB6993F8A1
:1038B80042309AB2FB6993F841309BB2D31AFB822B
:1038C8007B681B78FA8A1B491846FFF70FFCFB69CF
:1038D80093F84120FB6993F842309A4210D9FB696A
:1038E80093F841309AB2FB6993F842309BB2D31AED
:1038F800FB827B681B78FA8A0D491846FFF7F6FBAE
:10390800FB6993F84220FB6983F841207B68042215
:103918001A7403E07B6800221A7400E000BF78681C
:10392800FFF7E8FC97F8233018463037BD4680BDCE
:103938007C1C0108841C010880B483B000AF786047
:103948007B68002283F8E6227B68002283F8E52260
:103958007B683F2283F8E4227B68002283F8A42254
:1039680000BF0C37BD4680BC704780B582B000AF41
:1039780078607B6893F896311A46796813465B013C
:1039880013445B0013440B4403F5CC727B68104668
:1039980003F52973432219460AF044FF7B6893F81C
:1039A8009731032B07D87B6893F897310133DAB244
:1039B8007B6883F897217B6893F896315AB27B68C5
:1039C80083F895217B6893F8963101335A4203F0C6
:1039D800030302F0030258BF5342DAB27B6883F84C
:1039E80096217B68012283F8942100BF0837BD46E1
:1039F80080BD000080B584B000AF78600B46FB70D6
:103A08007B6893F89731002B76D07B6893F8E53282
:103A1800002B08D07B6818787B6893F8E5321A4643
:103A28003749FFF763FB7B6893F8E632002B08D031
:103A38007B6818787B6893F8E6321A463149FFF7B5
:103A480055FB97F90330012B25D17B6893F8943106
:103A5800002B06D07B6893F896315AB27B6883F8BE
:103A680095217B6893F995311A467B6893F89731CD
:103A78001344013B7A6892F8972193FBF2F101FB1A
:103A880002F29B1A5AB27B6883F895217B6893F9F6
:103A98009531FB7313E07B6893F9953101337A68AC
:103AA80092F8972193FBF2F101FB02F29B1A5AB2AA
:103AB8007B6883F895217B6893F99531FB73FA7BD2
:103AC8007968786813465B0113445B001344034428
:103AD80003F5CC7201F529731146432218460AF002
:103AE800A1FE7B6893F8E6227B6883F8E5227B6871
:103AF800002283F8942100E000BF1037BD4680BD46
:103B08007C1C01088C1C010880B584B000AF78606B
:103B18000023FB72786800F051F80346002B46D06A
:103B2800254800F093F87B68D3F81431184600F064
:103B3800B1F80023FB6033E07B68D3F81401FA681E
:103B480013469B0013449B0003F53A737A681344A9
:103B580004331946FCF764FB0346002B1DD17B6830
:103B6800B3F81231013B9AB27B68A3F82C247B6826
:103B780003F58C727B68C3F830247968FA681346B9
:103B88009B0013449B000B4403F53F731B687A6842
:103B980002F22C421046984709E0FB680133FB60AB
:103BA8007B68B3F8E8321A46FB689342C4DBFB7AB9
:103BB80018461037BD4680BD941C010880B588B0F2
:103BC80000AF78600023FB770023FB827B6800222C
:103BD800A3F812217B6803F529733B617B6803F521
:103BE8008A73FB60FB8A9B00FA68134400221A6000
:103BF800154B1B6807F10802194638690BF0CEFC13
:103C0800B86110E0FB8A5A1CFA829B00FA681344D8
:103C1800BA691A600C4B1B6807F1080219460020A4
:103C28000BF0BCFCB861BB69002BEBD17B68FA8A4E
:103C3800A3F81221FB8A002B01D00123FB77FB7F1D
:103C480018462037BD4680BD300000200FB480B52F
:103C580084B000AF07F11C037B600D4BFB60FB6871
:103C680003F111007B68BA694FF480710BF042FDD3
:103C7800B860FB681878FB681133BA681946FFF713
:103C8800FDF900BF1037BD46BDE8804004B070475D
:103C98009008002080B485B000AF78600023FB81D5
:103CA80018E0FB897A6813441B787B737B7B002BB5
:103CB80014D07B7B602B05D97B7B7A2B02D87B7B4E
:103CC800203B7B73FB897A6813447A7B1A70FB89E3
:103CD8000133FB81FB890F2BE3D900E000BFFB898F
:103CE800102B05D1FB89013B7A68134400221A7016
:103CF80000BF1437BD4680BC7047000080B584B053
:103D080000AF0346FB710023FB600F4BBB60FB79E0
:103D18009AB2BB68B3F82C349A4201D300230EE060
:103D2800BB68D3F83024FB799B0013441B6800223E
:103D3800002118460BF0A8FC0346FB60FB681846F8
:103D48001037BD4680BD00BF9008002080B584B004
:103D580000AF0346FB714FF00003FB600E4BBB60E6
:103D6800FB799AB2BB68B3F82C349A4202D34FF06D
:103D780000030CE0BB68D3F83024FB799B001344A4
:103D88001B68002118460BF08FFBF860FB6818468B
:103D98001037BD4680BD00BF9008002080B485B0B4
:103DA80000AF0346FB710023FB600C4BBB60FB7943
:103DB8009AB2BB68B3F82C349A4201D3002308E0C6
:103DC800BB68D3F83024FB799B0013441B68FB6065
:103DD800FB6818461437BD4680BC70479008002021
:103DE80080B584B000AF03463960FB710023FB73D4
:103DF8000F4BBB60FB799AB2BB68B3F82C349A427C
:103E080001D3002310E0BB68D3F83024FB799B0072
:103E180013441B6819463868FCF702FA0346002B5E
:103E280001D10123FB73FB7B18461037BD4680BDCB
:103E38009008002080B586B000AF78603960012313
:103E4800FB75204B3B613B69B3F8E8320F2B01D976
:103E5800002332E03B69B3F8E832FB81FA89134664
:103E68009B0013449B0003F53A733A6913440433E7
:103E7800796818460AF004FDFA89396913469B00E7
:103E880013449B000B4403F53F733A681A60FA89A0
:103E980013469B0013449B0003F53A733A69134495
:103EA80004331846FFF7F6FE3B69B3F8E8320133EE
:103EB8009AB23B69A3F8E822FB7D18461837BD463D
:103EC80080BD00BF9008002080B584B000AF786046
:103ED8001C4BBB601C48FFF7B9FE1C491C48FFF788
:103EE800B5FE1C491C48FFF7B1FE0023FB6015E036
:103EF8001A48FFF7ABFEFA6813469B0013449B0071
:103F080003F53A73BA68134404331846FFF79EFE64
:103F18000D48FFF79BFEFB680133FB60BB68B3F8F5
:103F2800E8321A46FB689342E2DB08490C48FFF77F
:103F38008DFE08490848FFF789FE00BF1037BD46C7
:103F480080BD00BF90080020941C0108981C01083F
:103F5800A01C0108C41C0108CC1C0108D01C0108C5
:103F6800E01C010880B586B000AF78607B681B88CC
:103F78007B617B685B683B617B681B88002B1CD17D
:103F880031493248FFF762FE31493248FFF75EFE99
:103F98003148FFF75BFE3148FFF758FE3048FFF71E
:103FA80055FE3048FFF752FE27492F48FFF74EFECF
:103FB80027492848FFF74AFE42E03B691B68002270
:103FC800002118460BF060FB0346FB60FB68012BE1
:103FD80013D1264B01221A7025492348FFF736FED4
:103FE80023492448FFF732FE21491F48FFF72EFED8
:103FF80017491848FFF72AFE22E0FB68022B13D165
:104008001A4B02221A701A491748FFF71FFE18495F
:104018001948FFF71BFE16491348FFF717FE0C490E
:104028000C48FFF713FE0BE007491448FFF70EFE94
:1040380005491348FFF70AFE05490648FFF706FE3B
:104048001837BD4680BD00BF041D01080C1D0108BE
:10405800C41C0108CC1C01083C1D0108601D010896
:10406800841D0108A81D0108D01D0108D40D0020D9
:10407800981C0108001E01082C1E0108581E010882
:104088007C1E010880B586B000AF78607B681B880D
:104098007B617B685B683B617B681B88002B1CD15C
:1040A80031493248FFF7D2FD31493248FFF7CEFD9A
:1040B8003148FFF7CBFD3148FFF7C8FD3048FFF71F
:1040C800C5FD3048FFF7C2FD27492F48FFF7BEFD61
:1040D80027492848FFF7BAFD42E03B691B680022E0
:1040E800002118460BF0D0FA0346FB60FB68012B51
:1040F80013D1264B02225A7025492348FFF7A6FD03
:1041080023492448FFF7A2FD21491F48FFF79EFDD8
:1041180017491848FFF79AFD22E0FB68022B13D1D4
:104128001A4B01225A701A491748FFF78FFD184990
:104138001948FFF78BFD16491348FFF787FD0C490F
:104148000C48FFF783FD0BE007491448FFF77EFD95
:1041580005491348FFF77AFD05490648FFF776FD3C
:104168001837BD4680BD00BF041D0108A81E010800
:10417800C41C0108CC1C01083C1D0108D81E0108FC
:10418800FC1E0108201F0108D01D0108D40D0020C5
:10419800981C0108481F0108701F0108581E0108D3
:1041A8007C1E010880B586B000AF78600A23FB75D5
:1041B8007B681B883B617B685B68FB607B681B884E
:1041C800002B20D12B492C48FFF740FD2B492C48C8
:1041D800FFF73CFDFB7D1A462A492B48FFF736FDC1
:1041E80026492748FFF732FD2848FFF72FFD2848C2
:1041F800FFF72CFD1F492748FFF728FD1F492048D6
:10420800FFF724FD32E0FB681B68002200211846F6
:104218000BF03AFA0346BB60BB68002B1AD0BB68A8
:10422800142B17D8BB68DAB21B4B1A711B491948F3
:10423800FFF70CFD184B1B791A4618491848FFF769
:1042480005FD16491348FFF701FD0C490C48FFF717
:10425800FDFC0BE007491348FFF7F8FC0549124835
:10426800FFF7F4FC05490648FFF7F0FC1837BD4690
:1042780080BD00BF041D0108981F0108C41C010867
:10428800CC1C0108C81F0108D01F0108F81F01082D
:1042980020200108D01D0108D40D0020981C010819
:1042A80050200108581E01087C1E010880B586B000
:1042B80000AF78606423FB757B681B883B617B6873
:1042C8005B68FB607B681B88002B20D12B492C483E
:1042D800FFF7BCFC2B492C48FFF7B8FCFB7D1A46BE
:1042E8002A492B48FFF7B2FC26492748FFF7AEFCBE
:1042F8002848FFF7ABFC2848FFF7A8FC1F492748C8
:10430800FFF7A4FC1F492048FFF7A0FC32E0FB6838
:104318001B680022002118460BF0B6F90346BB6063
:10432800BB68592B1AD9BB68962B17D8BB68DAB269
:104338001B4B5A711B491948FFF788FC184B5B79CE
:104348001A4618491848FFF781FC16491348FFF721
:104358007DFC0C490C48FFF779FC0BE00749134832
:10436800FFF774FC05491248FFF770FC0549064839
:10437800FFF76CFC1837BD4680BD00BF041D01085F
:10438800981F0108C41C0108CC1C0108C81F01089B
:1043980080200108A4200108D0200108D01D0108B0
:1043A800D40D0020981C0108FC200108581E0108A3
:1043B8007C1E010880B586B000AF78607823FB7555
:1043C8007B681B883B617B685B68FB607B681B883C
:1043D800002B20D12B492C48FFF738FC2B492C48BF
:1043E800FFF734FCFB7D1A462A492B48FFF72EFCC1
:1043F80026492748FFF72AFC2848FFF727FC2848C2
:10440800FFF724FC1F492748FFF720FC1F492048D5
:10441800FFF71CFC32E0FB681B68002200211846ED
:104428000BF032F90346BB60BB68592B1AD9BB683D
:10443800962B17D8BB68DAB21B4B9A711B491948DF
:10444800FFF704FC184B9B791A4618491848FFF7E0
:10445800FDFB16491348FFF7F9FB0C490C48FFF719
:10446800F5FB0BE007491348FFF7F0FB0549124835
:10447800FFF7ECFB05490648FFF7E8FB1837BD4690
:1044880080BD00BF041D0108981F0108C41C010855
:10449800CC1C0108C81F01082C210108A420010810
:1044A80050210108D01D0108D40D0020981C0108D6
:1044B80080210108581E01087C1E010880B586B0BD
:1044C80000AF78607B681B887B617B685B683B61B9
:1044D8007B681B88002B19D12F493048FFF7B6FBA2
:1044E8002F493048FFF7B2FB2F48FFF7AFFB2F48A3
:1044F800FFF7ACFB2E48FFF7A9FB27492D48FFF72C
:10450800A5FB27492748FFF7A1FB42E03B691B6849
:104518000022002118460BF0B7F80346FB60FB6841
:10452800012B13D1244B01229A7024492148FFF70B
:104538008DFB22492248FFF789FB20491D48FFF7D8
:1045480085FB17491748FFF781FB22E0FB68022B20
:1045580013D1194B02229A7018491648FFF776FBB7
:1045680016491848FFF772FB14491248FFF76EFB0B
:104578000B490C48FFF76AFB0BE007491248FFF7A5
:1045880065FB05491148FFF761FB05490548FFF739
:104598005DFB1837BD4680BD041D0108B021010828
:1045A800C41C0108CC1C01083C1D0108DC210108C1
:1045B80004220108D01D0108D40D0020981C010810
:1045C8002822010858220108581E01087C1E0108EB
:1045D80080B586B000AF78607B681B887B617B689C
:1045E8005B683B617B681B88002B19D12F493048D9
:1045F800FFF72CFB2F493048FFF728FB2F48FFF720
:1046080025FB2F48FFF722FB2E48FFF71FFB274902
:104618002D48FFF71BFB27492748FFF717FB42E008
:104628003B691B680022002118460BF02DF8034651
:10463800FB60FB68012B13D1244B0122DA7024495B
:104648002148FFF703FB22492248FFF7FFFA2049D8
:104658001D48FFF7FBFA17491748FFF7F7FA22E05A
:10466800FB68022B13D1194B0222DA70184916483D
:10467800FFF7ECFA16491848FFF7E8FA1449124808
:10468800FFF7E4FA0B490C48FFF7E0FA0BE007499B
:104698001248FFF7DBFA05491148FFF7D7FA054931
:1046A8000548FFF7D3FA1837BD4680BD041D010839
:1046B80084220108C41C0108CC1C01083C1D010807
:1046C800B0220108D4220108D01D0108D40D002011
:1046D800981C0108FC22010828230108581E01081B
:1046E8007C1E010880B586B000AF78607B681B88A7
:1046F8007B617B685B683B617B681B88002B19D1F9
:104708002F493048FFF7A2FA2F493048FFF79EFAA1
:104718002F48FFF79BFA2F48FFF798FA2E48FFF724
:1047280095FA27492D48FFF791FA27492748FFF7B7
:104738008DFA42E03B691B680022002118460AF006
:10474800A3FF0346FB60FB68012B13D1244B012216
:10475800DA7124492148FFF779FA22492248FFF7FC
:1047680075FA20491D48FFF771FA17491748FFF7EE
:104778006DFA22E0FB68022B13D1194B0222DA7181
:1047880018491648FFF762FA16491848FFF75EFA03
:1047980014491248FFF75AFA0B490C48FFF756FA22
:1047A8000BE007491248FFF751FA05491148FFF78E
:1047B8004DFA05490548FFF749FA1837BD4680BD47
:1047C800041D010854230108C41C0108CC1C01085D
:1047D8003C1D010880230108A4230108D01D0108FD
:1047E800D40D0020981C0108C8230108F4230108EF
:1047F800581E01087C1E010880B586B000AF78609D
:104808007B681B887B617B685B683B617B681B8876
:10481800002B19D12F493048FFF718FA2F49304893
:10482800FFF714FA2F48FFF711FA2F48FFF70EFA8F
:104838002E48FFF70BFA27492D48FFF707FA2749B3
:104848002748FFF703FA42E03B691B680022002172
:1048580018460AF019FF0346FB60FB68012B13D1C9
:10486800244B01221A7224492148FFF7EFF9224903
:104878002248FFF7EBF920491D48FFF7E7F91749E8
:104888001748FFF7E3F922E0FB68022B13D1194B15
:1048980002221A7218491648FFF7D8F9164918481B
:1048A800FFF7D4F914491248FFF7D0F90B490C481F
:1048B800FFF7CCF90BE007491248FFF7C7F905499C
:1048C8001148FFF7C3F905490548FFF7BFF918373D
:1048D800BD4680BD041D010820240108C41C010830
:1048E800CC1C01083C1D0108482401086C2401085F
:1048F800D01D0108D40D0020981C0108902401083F
:10490800B8240108581E01087C1E010880B584B02F
:1049180000AF78607B681B88FB607B681B88002B76
:1049280064D134493448FFF791F934493448FFF7E2
:104938008DF9344B1B78012B03D13348FFF786F9E7
:1049480002E03248FFF782F92E4B5B78012B03D146
:104958002F48FFF77BF902E02E48FFF777F9294B3C
:104968009B78012B03D12C48FFF770F902E02B4804
:10497800FFF76CF9234BDB78012B03D12848FFF7AD
:1049880065F902E02748FFF761F91E4BDB79012B37
:1049980003D12548FFF75AF902E02448FFF756F9F2
:1049A800184B1B7A012B03D12148FFF74FF902E07E
:1049B8002048FFF74BF9134B1B7919461E48FFF7A0
:1049C80045F9104B5B7919461C48FFF73FF90D4B29
:1049D8009B7919461A48FFF739F906491948FFF72C
:1049E80035F919490648FFF731F900BF1037BD46B8
:1049F80080BD00BF981C0108E424010810250108A7
:104A0800CC1C0108D40D00201825010840250108F8
:104A1800682501088C250108B0250108DC25010856
:104A2800042601082C260108542601087C260108C2
:104A3800A0260108C4260108E82601080C27010859
:104A48003027010854270108C41C010880B584B028
:104A580000AF78607B681B88FB607B681B88002B35
:104A68001FD102F003FC10491048FFF7EFF8962019
:104A780003F05AFD0C490E48FFF7E8F8962003F0BA
:104A880053FD09490B48FFF7E1F8962003F04CFD68
:104A980005490948FFF7DAF808490948FFF7D6F841
:104AA80000BF1037BD4680BD041D010880270108DE
:104AB8008C2701089C270108AC270108C41C0108A1
:104AC800CC1C010880B500AF9A4B1B8823F0040367
:104AD8009AB2984B1A80984B1B6823F40073964A35
:104AE8001360964B1B6823F08003944A1360944B21
:104AF8005B7803F00103002B19D092499248FFF725
:104B0800A5F892499248FFF7A1F88C4B1B6843F42B
:104B180080038A4A13608F4B40F68C221A60884BB8
:104B28005B7823F00103DAB2854B5A70FFE0844BBF
:104B38005B7803F00203002B19D082498648FFF7FF
:104B480085F882498248FFF781F87C4B1B6843F45B
:104B580080037A4A13607F4B40F68C221A60784BA8
:104B68005B7823F00203DAB2754B5A70DFE0744BBE
:104B78005B7803F00403002B19D072497748FFF7DC
:104B880065F872497248FFF761F86C4B1B6843F48B
:104B980080036A4A13606F4B40F68C221A60684B98
:104BA8005B7823F00403DAB2654B5A70BFE0644BBC
:104BB8005B7803F00803002B19D062496848FFF7B7
:104BC80045F862496248FFF741F85C4B1B6843F4BB
:104BD80080035A4A13605F4B40F68C221A60584B88
:104BE8005B7823F00803DAB2554B5A709FE0544BB8
:104BF8005B7803F01003002B19D052495948FFF78E
:104C080025F852495248FFF721F84C4B1B6843F4EA
:104C180080034A4A13604F4B40F68C221A60484B77
:104C28005B7823F01003DAB2454B5A707FE0444BAF
:104C38005B7803F02003002B19D042494A48FFF75C
:104C480005F842494248FFF701F83C4B1B6843F41A
:104C580080033A4A13603F4B40F68C221A60384B67
:104C68005B7823F02003DAB2354B5A705FE0344B9F
:104C78005B7803F04003002B0FD032493B48FEF726
:104C8800E5FF32493248FEF7E1FF2D4B5B7823F010
:104C98004003DAB22A4B5A7049E0294B5B785BB281
:104CA800002B0FDA27493248FEF7D0FF274928485A
:104CB800FEF7CCFF224B5B7803F07F03DAB2204B80
:104CC8005A7034E01E4B9B7803F00103002B0FD081
:104CD8001C492848FEF7BAFF1C491D48FEF7B6FFD5
:104CE800174B9B7823F00103DAB2154B9A701EE03C
:104CF800134B9B7803F00203002B18D011491E4870
:104D0800FEF7A4FF11491248FEF7A0FF0B4B1B68E2
:104D180043F40003094A13600E4B4FF496621A607D
:104D2800074B9B7823F00203DAB2054B9A7000BF59
:104D380080BD00BF000D0020FC0C0020F80C0020F6
:104D4800680D0020842801088C280108A028010883
:104D5800A8280108E80D0020AC280108C02801088F
:104D6800D8280108F4280108082901081C29010885
:104D780030290108442901085829010880B500AFE5
:104D88003C4B1B8823F002039AB23A4B1A8000F07E
:104D98004DFA0346002B0FD1374B1B6823F4004311
:104DA800354A1360344B1B6823F08063324A136022
:104DB800324B00221A805BE0314B1B7803F0400332
:104DC800002B03D02F4B01221A7002E02D4B00223A
:104DD8001A702B4B1B785BB2002B2CDA264B1B6806
:104DE80043F40043244A1360254B5B781B021AB234
:104DF800234B1B781BB213431BB29AB21F4B1A806A
:104E08001E4B1B8803F08D039AB21C4B1A801A4B59
:104E18001B6843F08063184A1360174B1B6803F440
:104E28000033002B03D0184B03221A7020E0164BD6
:104E380002221A701CE0104B1B6803F40043002B7D
:104E480016D00D4B1B6823F400430B4A13600A4B22
:104E58001B6823F08063084A1360084B00221A80FD
:104E6800054B1B6803F08003002B01D001F048FFBD
:104E780080BD00BF000D0020F80C0020360D00207A
:104E8800640D0020880D00203900002080B500AF97
:104E9800184B1B78002B2AD0174B1B8803F00203F2
:104EA800002B02D0FFF76AFF21E0134B1B8803F0A9
:104EB8000403002B02D0FFF705FE18E00F4B1B6818
:104EC80003F08003002B12D00D4B1B88002B08D158
:104ED8000A4B1B6843F00053084A136001F010FFA7
:104EE80005E0064B1B6823F00053044A136000BF1B
:104EF80080BD00BFF20C0020000D0020F80C00203F
:104F0800560D002080B58AB000AF07F118030022C3
:104F18001A605A609A60DA609F4B9B699E4A43F018
:104F2800040393619C4B9B6903F004037B617B69D9
:104F3800994B9B69984A43F008039361964B9B6988
:104F480003F008033B613B69934B9B69924A43F02A
:104F580010039361904B9B6903F01003FB60FB689F
:104F68008D4B9B698C4A43F0200393618A4B9B6964
:104F780003F02003BB60BB68874B9B69864A43F0FC
:104F880040039361844B9B6903F040037B607B681B
:104F98000F23BB610023FB6102233B6207F1180367
:104FA80019467E4805F03EFC4023BB610123FB61A6
:104FB80000233B6202237B6207F1180319467748F6
:104FC80005F030FCE323BB610123FB6100233B6256
:104FD80002237B6207F118031946714805F022FC89
:104FE8004FF44073BB610123FB6100233B62022342
:104FF8007B6207F118031946694805F013FC4FF462
:105008007043BB610123FB6100233B6202237B6287
:1050180007F118031946624805F004FC00224FF412
:1050280080515F4805F075FE00224FF400515C483E
:1050380005F06FFE00224FF48041594805F069FEE3
:1050480000224FF40041564805F063FE1323BB616C
:105058000023FB6102233B6207F1180319465148FC
:1050680005F0E0FB0423BB610023FB6102233B62E4
:1050780007F1180319464B4805F0D4FBC023BB6160
:105088000023FB6102233B6207F1180319464548D8
:1050980005F0C8FB2023BB610123FB6107F118035E
:1050A8001946404805F0BEFB4FF44063BB6100233E
:1050B800FB6102233B6207F118031946394805F0E2
:1050C800B1FB4FF47043BB610023FB6102233B62D9
:1050D80007F118031946334805F0A4FB1F23BB61E9
:1050E8000023FB6102233B6207F1180319462E488F
:1050F80005F098FB0323BB610123FB6100233B629E
:1051080002237B6207F118031946284805F08AFB39
:105118004FF44073BB610123FB6100233B62022310
:105128007B6207F118031946204805F07BFB4FF412
:10513800E053BB610123FB6100233B6202237B62D6
:1051480007F118031946194805F06CFB7C23BB616D
:105158000023FB6102233B6207F118031946134839
:1051680005F060FB4FF44043BB610023FB61022361
:105178003B6207F1180319460C4805F053FB02F08F
:1051880069FA02F073FA02F093FA094B01221A70D5
:1051980000BF2837BD4680BD00100240000801400E
:1051A800000C0140001001400014014000180140AB
:1051B800F20C002080B400AF0A4B1B6803F0010317
:1051C800002B0BD1084B01221A70064B1B6843F0C9
:1051D8000103044A1360054B0A221A8000BFBD462A
:1051E80080BC7047F80C00201C0D0020200D00200A
:1051F80080B400AF0A4B1B6803F00803002B0BD1E7
:10520800084B01221A70064B1B6843F00803044A36
:105218001360054B0A221A8000BFBD4680BC704748
:10522800F80C00201D0D0020220D002080B500AFD5
:10523800254B1B6803F40053002B20D1224B1B681D
:1052480003F48053002B1AD11F4B1B6803F48043CF
:10525800002B01D1012335E01C4B1B78032B01D90E
:1052680001232FE0194B1B78022B06D8184B1B88FB
:10527800012B02D11748FEF7E9FC002322E0144B6A
:105288001B88012B1DD11448FEF7E0FC0E4B1B6850
:1052980003F40053002B02D01048FEF7D7FC0A4B4A
:1052A8001B6803F48053002B02D00D48FEF7CEFC98
:1052B800054B1B6803F48043002B02D00948FEF716
:1052C800C5FC0023184680BDF80C0020590D0020AD
:1052D800080D0020702901088C2901089C29010863
:1052E800A4290108B029010880B582B000AF03469F
:1052F800FB719F4B1B6803F40053002B04D0FB7910
:10530800022B01D00023FB71FB79802B00F08581F3
:10531800802B00F3E781202B4ADC002B40F3E2814D
:10532800013B1F2B00F2DE8101A252F823F000BFDF
:10533800C1530008E3530008ED560008055400085F
:10534800ED560008ED560008ED56000835540008E3
:10535800ED560008ED560008ED560008ED56000819
:10536800ED560008ED560008ED5600086554000893
:10537800ED560008ED560008ED560008ED560008F9
:10538800ED560008ED560008ED560008ED560008E9
:10539800ED560008ED560008ED560008ED560008D9
:1053A800ED560008ED560008ED5600085D56000859
:1053B800402B00F0888095E16D4B1B6843F0020399
:1053C8006B4A1360FFF7F6FE6A4B1B88032B40F00D
:1053D8008B816948FEF73AFC86E1654B1B6823F030
:1053E8000203634A1360FFF7E5FE624B1B88032B39
:1053F80040F07C816148FEF729FC77E15C4B1B6833
:1054080003F40073002B40F07381594B1B6843F081
:105418001003574A1360FFF7EBFE564B1B88032B0C
:1054280040F066815648FEF711FC61E1504B1B685D
:1054380003F48063002B40F05D814D4B1B6823F023
:1054480010034B4A1360FFF7D3FE4A4B1B88032B0C
:1054580040F050814B48FEF7F9FB4BE1FFF7E6FEC1
:105468000346002B00F04881414B1B6883F0807392
:105478003F4A13603F4B1B88012B05D13C4B1B68EF
:1054880019464148FEF7E2FB394B1B6803F080736D
:10549800002B09D0374B1B88012B02D13B48FEF764
:1054A800D5FB01F005FC27E1394B0D221A70394B69
:1054B8000A221A802F4B1B88012B40F01D81364889
:1054C800FEF7C4FB18E1FFF7B1FE0346002B00F01E
:1054D800158102F0B1FE0346002B00F09680244BA4
:1054E8001B6803F04003002B66D12C4B1B78032B61
:1054F80002D92A4B01221A70284B1B78002B06D19F
:10550800274B1B78002B02D1244B01221A70234B06
:105518001B78002B19D0234B01221A70144B1B68DF
:1055280043F04003124A1360114B1B6843F00073A9
:105538000F4A13601C4B0A221A80184B1B781A4614
:105548001A4B9A5C1A4B1A7002E0164B05221A7015
:10555800084B1B88012B40F0D180104B1B78194653
:10556800134B1B781A461348FEF770FBC6E000BFC2
:10557800F80C0020080D0020C0290108D0290108D6
:10558800E0290108F0290108042A01081C2A010859
:105598001E0D0020240D00202C2A0108320D0020A9
:1055A800590D00201F0D0020260D00200C2E01088B
:1055B8002A0D00203C2A0108554B1B780133DAB22A
:1055C800534B1A70524B1B78032B02D9504B0122B4
:1055D8001A704F4B1B781A464E4B9A5C4E4B1A70FA
:1055E8004E4B02221A704E4B0A221A804D4B1B88D2
:1055F800012B40F08380464B1B781946464B1B789D
:105608001A464948FEF722FB78E0464B1B88012BD7
:1056180074D14648FEF71AFB70E0454B1B6803F04F
:105628004003002B6CD0424B1B6823F00073404AA8
:1056380013603A4B05221A70394B0A221A80344BF0
:1056480000221A70374B1B88012B59D13948FEF7B5
:10565800FDFA55E0FFF7EAFD0346002B52D0344B24
:105668001B6883F08003324A1360314B1B6803F4D4
:105678008013002B05D02E4B1B6823F480132C4A73
:105688001360284B1B88012B07D1294B1B6803F09B
:10569800800319462848FEF7D9FA254B1B6803F002
:1056A8008003002B0CD01F4B1B88012B2AD1204BC9
:1056B8001B6803F0800319462048FEF7C7FA21E06B
:1056C800184B1B88012B0AD1194B1B6803F0800368
:1056D80019461A48FEF7BAFA1948FEF7B7FA01F060
:1056E8000FFB0FE000BF0EE000BF0CE000BF0AE0B8
:1056F80000BF08E000BF06E000BF04E000BF02E012
:1057080000BF00E000BF00BF0837BD4680BD00BF36
:10571800320D00200C2E01082A0D00201F0D00203C
:10572800260D0020080D00205C2A01087C2A0108AB
:10573800F80C0020902A0108A82A0108BC2A0108B0
:10574800C42A010880B500AF424B5B8803F001030F
:10575800002B14D000F0D0FB0346002B36D13E4B73
:105768001B6843F001033C4A13603B4B1B6823F062
:105778000203394A13600120FFF7B6FD26E0354BD6
:105788005B8803F00203002B14D000F0B5FB03463E
:10579800002B1BD1304B1B6823F001032E4A1360EA
:1057A8002D4B1B6843F002032B4A13600220FFF7BE
:1057B8009BFD0BE0284B1B6823F00103264A13606E
:1057C800254B1B6823F00203234A1360214B5B8897
:1057D80003F00403002B14D000F08EFB0346002BCB
:1057E80036D11D4B1B6843F004031B4A13601A4B48
:1057F8001B6823F00803184A13600420FFF774FDA0
:1058080026E0144B5B8803F00803002B14D000F04B
:1058180073FB0346002B1BD10F4B1B6823F00403BB
:105828000D4A13600C4B1B6843F008030A4A1360C7
:105838000820FFF759FD0BE0074B1B6823F0040312
:10584800054A1360044B1B6823F00803024A1360DF
:1058580000BF80BDDC0C0020FC0C002080B500AF30
:105868001C4B1B8803F00103002B0FD01A4B1B683D
:1058780043F00073184A1360174B1B6823F08063CA
:10588800154A13600120FFF72FFD21E0114B1B88FB
:1058980003F00203002B0FD00F4B1B6823F000739B
:1058A8000D4A13600C4B1B6843F080630A4A13606F
:1058B8000220FFF719FD0BE0074B1B6823F000736C
:1058C800054A1360044B1B6823F08063024A136087
:1058D80000BF80BD360D0020FC0C00202DE9F043F0
:1058E80089B008AF994B1B88012B32D1984B5B8844
:1058F8009846984B1B889946974B1B681846FAF7A9
:1059080005FE04460D46954B1B881E46944B1B68A6
:105918001846FAF7FBFD02460B46924909780691AC
:10592800CDE904230296CDE900454A4641468E4812
:10593800FEF78CF98D4B1B6803F480718B4B1B6849
:1059480003F40072894B1B6803F480638848FEF7F0
:105958007DF97F4B5B8803F00103002B14D000F026
:10596800CBFA0346002B36D1824B1B6843F0200349
:10597800804A13607F4B1B6823F040037D4A136005
:105988000120FFF7B1FC26E0714B5B8803F01003A0
:10599800002B14D000F0B0FA0346002B1BD1754B36
:1059A8001B6843F04003734A1360724B1B6823F073
:1059B8002003704A13600220FFF796FC0BE06D4B42
:1059C8001B6823F020036B4A13606A4B1B6823F0A3
:1059D8004003684A13605E4B5B8803F02003002B8A
:1059E80014D000F089FA0346002B36D1614B1B68AE
:1059F80043F080035F4A13605E4B1B6823F4807397
:105A08005C4A13600420FFF76FFC26E0504B5B886C
:105A180003F04003002B14D000F06EFA0346002B6D
:105A28001BD1544B1B6843F48073524A1360514B8B
:105A38001B6823F080034F4A13600820FFF754FCCB
:105A48000BE04C4B1B6823F080034A4A1360494B18
:105A58001B6823F48073474A13603D4B5B8803F04F
:105A68000803002B10D0394B1B88012B02D1424868
:105A7800FEF7ECF83F4B1B6843F480533D4A136034
:105A88008020FFF731FC22E0314B5B8803F00403F0
:105A9800002B10D02D4B1B88012B02D13748FEF765
:105AA800D5F8344B1B6843F40063324A1360402036
:105AB800FFF71AFC0BE02F4B1B6823F400632D4AF9
:105AC80013602C4B1B6823F480532A4A1360204B25
